{
  "contractName": "Migrations",
  "abi": [
    {
      "constant": true,
      "inputs": [],
      "name": "owner",
      "outputs": [
        {
          "name": "",
          "type": "address"
        }
      ],
      "payable": false,
      "stateMutability": "view",
      "type": "function"
    },
    {
      "inputs": [],
      "payable": false,
      "stateMutability": "nonpayable",
      "type": "constructor"
    },
    {
      "constant": false,
      "inputs": [
        {
          "name": "cost",
          "type": "uint256"
        },
        {
          "name": "check_sum",
          "type": "string"
        }
      ],
      "name": "submitTask",
      "outputs": [],
      "payable": true,
      "stateMutability": "payable",
      "type": "function"
    },
    {
      "constant": false,
      "inputs": [
        {
          "name": "id",
          "type": "uint256"
        },
        {
          "name": "deposit",
          "type": "uint256"
        }
      ],
      "name": "receiveTask",
      "outputs": [],
      "payable": true,
      "stateMutability": "payable",
      "type": "function"
    },
    {
      "constant": false,
      "inputs": [
        {
          "name": "id",
          "type": "uint256"
        },
        {
          "name": "check_sum",
          "type": "string"
        }
      ],
      "name": "returnResource",
      "outputs": [],
      "payable": true,
      "stateMutability": "payable",
      "type": "function"
    },
    {
      "constant": false,
      "inputs": [
        {
          "name": "id",
          "type": "uint256"
        }
      ],
      "name": "cancelTask",
      "outputs": [],
      "payable": true,
      "stateMutability": "payable",
      "type": "function"
    },
    {
      "constant": true,
      "inputs": [],
      "name": "getAllTasks",
      "outputs": [
        {
          "components": [
            {
              "name": "task_id",
              "type": "uint256"
            },
            {
              "name": "cost",
              "type": "uint256"
            },
            {
              "name": "deposit",
              "type": "uint256"
            },
            {
              "name": "check_sum",
              "type": "string"
            },
            {
              "name": "sponsor",
              "type": "address"
            },
            {
              "name": "target",
              "type": "address"
            }
          ],
          "name": "Tasks",
          "type": "tuple[]"
        }
      ],
      "payable": false,
      "stateMutability": "view",
      "type": "function"
    },
    {
      "constant": true,
      "inputs": [
        {
          "name": "id",
          "type": "uint256"
        }
      ],
      "name": "getTaskById",
      "outputs": [
        {
          "components": [
            {
              "name": "task_id",
              "type": "uint256"
            },
            {
              "name": "cost",
              "type": "uint256"
            },
            {
              "name": "deposit",
              "type": "uint256"
            },
            {
              "name": "check_sum",
              "type": "string"
            },
            {
              "name": "sponsor",
              "type": "address"
            },
            {
              "name": "target",
              "type": "address"
            }
          ],
          "name": "task",
          "type": "tuple"
        }
      ],
      "payable": false,
      "stateMutability": "view",
      "type": "function"
    },
    {
      "constant": true,
      "inputs": [],
      "name": "getLastTaskId",
      "outputs": [
        {
          "name": "id",
          "type": "uint256"
        }
      ],
      "payable": false,
      "stateMutability": "view",
      "type": "function"
    }
  ],
  "bytecode": "0x608060405234801561001057600080fd5b50336000806101000a81548173ffffffffffffffffffffffffffffffffffffffff021916908373ffffffffffffffffffffffffffffffffffffffff160217905550611625806100606000396000f30060806040526004361061008e576000357c0100000000000000000000000000000000000000000000000000000000900463ffffffff16806304655aa314610093578063776bae68146100af578063779900b4146100cb5780637ac3774f146100f65780637eec20a8146101125780638da5cb5b1461012e5780638db4cd7314610159578063976217cd14610184575b600080fd5b6100ad60048036036100a89190810190610f42565b6101c1565b005b6100c960048036036100c49190810190610eee565b61034f565b005b3480156100d757600080fd5b506100e06104f5565b6040516100ed919061135c565b60405180910390f35b610110600480360361010b9190810190610eee565b6106c1565b005b61012c60048036036101279190810190610ec5565b6109b3565b005b34801561013a57600080fd5b50610143610b5c565b6040516101509190611341565b60405180910390f35b34801561016557600080fd5b5061016e610b81565b60405161017b91906114c0565b60405180910390f35b34801561019057600080fd5b506101ab60048036036101a69190810190610ec5565b610baf565b6040516101b8919061149e565b60405180910390f35b3481111580156101d5575060018054905082105b1515610216576040517f08c379a000000000000000000000000000000000000000000000000000000000815260040161020d9061139e565b60405180910390fd5b60018281548110151561022557fe5b906000526020600020906006020160040160009054906101000a900473ffffffffffffffffffffffffffffffffffffffff1673ffffffffffffffffffffffffffffffffffffffff163373ffffffffffffffffffffffffffffffffffffffff16141515156102c7576040517f08c379a00000000000000000000000000000000000000000000000000000000081526004016102be906113fe565b60405180910390fd5b336001838154811015156102d757fe5b906000526020600020906006020160050160006101000a81548173ffffffffffffffffffffffffffffffffffffffff021916908373ffffffffffffffffffffffffffffffffffffffff1602179055508060018381548110151561033657fe5b9060005260206000209060060201600201819055505050565b610357610d53565b34831115151561039c576040517f08c379a0000000000000000000000000000000000000000000000000000000008152600401610393906113de565b60405180910390fd5b6001805490508160000181815250508281602001818152505081816060018190525033816080019073ffffffffffffffffffffffffffffffffffffffff16908173ffffffffffffffffffffffffffffffffffffffff168152505060018190806001815401808255809150509060018203906000526020600020906006020160009091929091909150600082015181600001556020820151816001015560408201518160020155606082015181600301908051906020019061045e929190610db6565b5060808201518160040160006101000a81548173ffffffffffffffffffffffffffffffffffffffff021916908373ffffffffffffffffffffffffffffffffffffffff16021790555060a08201518160050160006101000a81548173ffffffffffffffffffffffffffffffffffffffff021916908373ffffffffffffffffffffffffffffffffffffffff160217905550505050505050565b60606001805480602002602001604051908101604052809291908181526020016000905b828210156106b8578382906000526020600020906006020160c06040519081016040529081600082015481526020016001820154815260200160028201548152602001600382018054600181600116156101000203166002900480601f0160208091040260200160405190810160405280929190818152602001828054600181600116156101000203166002900480156105f45780601f106105c9576101008083540402835291602001916105f4565b820191906000526020600020905b8154815290600101906020018083116105d757829003601f168201915b505050505081526020016004820160009054906101000a900473ffffffffffffffffffffffffffffffffffffffff1673ffffffffffffffffffffffffffffffffffffffff1673ffffffffffffffffffffffffffffffffffffffff1681526020016005820160009054906101000a900473ffffffffffffffffffffffffffffffffffffffff1673ffffffffffffffffffffffffffffffffffffffff1673ffffffffffffffffffffffffffffffffffffffff168152505081526020019060010190610519565b50505050905090565b6000806001805490508410151561070d576040517f08c379a00000000000000000000000000000000000000000000000000000000081526004016107049061137e565b60405180910390fd5b60018481548110151561071c57fe5b906000526020600020906006020160050160009054906101000a900473ffffffffffffffffffffffffffffffffffffffff1673ffffffffffffffffffffffffffffffffffffffff163373ffffffffffffffffffffffffffffffffffffffff161415156107bd576040517f08c379a00000000000000000000000000000000000000000000000000000000081526004016107b4906113be565b60405180910390fd5b6001848154811015156107cc57fe5b906000526020600020906006020160030160405180828054600181600116156101000203166002900480156108385780601f10610816576101008083540402835291820191610838565b820191906000526020600020905b815481529060010190602001808311610824575b5050915050604051809103902060001916836040518082805190602001908083835b60208310151561087f578051825260208201915060208101905060208303925061085a565b6001836020036101000a0380198251168184511680821785525050505050509050019150506040518091039020600019161415156108f2576040517f08c379a00000000000000000000000000000000000000000000000000000000081526004016108e99061147e565b60405180910390fd5b60018481548110151561090157fe5b90600052602060002090600602016002015460018581548110151561092257fe5b9060005260206000209060060201600101540191503373ffffffffffffffffffffffffffffffffffffffff168260405180602001905060006040518083038185875af19250505090508015156109ad576040517f08c379a00000000000000000000000000000000000000000000000000000000081526004016109a49061145e565b60405180910390fd5b50505050565b600080600180549050831015156109ff576040517f08c379a00000000000000000000000000000000000000000000000000000000081526004016109f69061137e565b60405180910390fd5b600183815481101515610a0e57fe5b906000526020600020906006020160040160009054906101000a900473ffffffffffffffffffffffffffffffffffffffff1673ffffffffffffffffffffffffffffffffffffffff163373ffffffffffffffffffffffffffffffffffffffff16141515610aaf576040517f08c379a0000000000000000000000000000000000000000000000000000000008152600401610aa69061143e565b60405180910390fd5b600a6009600185815481101515610ac257fe5b90600052602060002090600602016001015402811515610ade57fe5b0491503373ffffffffffffffffffffffffffffffffffffffff168260405180602001905060006040518083038185875af1925050509050801515610b57576040517f08c379a0000000000000000000000000000000000000000000000000000000008152600401610b4e9061141e565b60405180910390fd5b505050565b6000809054906101000a900473ffffffffffffffffffffffffffffffffffffffff1681565b6000600180808054905003815481101515610b9857fe5b906000526020600020906006020160000154905090565b610bb7610d53565b600182815481101515610bc657fe5b906000526020600020906006020160c06040519081016040529081600082015481526020016001820154815260200160028201548152602001600382018054600181600116156101000203166002900480601f016020809104026020016040519081016040528092919081815260200182805460018160011615610100020316600290048015610c975780601f10610c6c57610100808354040283529160200191610c97565b820191906000526020600020905b815481529060010190602001808311610c7a57829003601f168201915b505050505081526020016004820160009054906101000a900473ffffffffffffffffffffffffffffffffffffffff1673ffffffffffffffffffffffffffffffffffffffff1673ffffffffffffffffffffffffffffffffffffffff1681526020016005820160009054906101000a900473ffffffffffffffffffffffffffffffffffffffff1673ffffffffffffffffffffffffffffffffffffffff1673ffffffffffffffffffffffffffffffffffffffff16815250509050919050565b60c06040519081016040528060008152602001600081526020016000815260200160608152602001600073ffffffffffffffffffffffffffffffffffffffff168152602001600073ffffffffffffffffffffffffffffffffffffffff1681525090565b828054600181600116156101000203166002900490600052602060002090601f016020900481019282601f10610df757805160ff1916838001178555610e25565b82800160010185558215610e25579182015b82811115610e24578251825591602001919060010190610e09565b5b509050610e329190610e36565b5090565b610e5891905b80821115610e54576000816000905550600101610e3c565b5090565b90565b600082601f8301121515610e6e57600080fd5b8135610e81610e7c82611508565b6114db565b91508082526020830160208301858383011115610e9d57600080fd5b610ea8838284611598565b50505092915050565b6000610ebd823561158e565b905092915050565b600060208284031215610ed757600080fd5b6000610ee584828501610eb1565b91505092915050565b60008060408385031215610f0157600080fd5b6000610f0f85828601610eb1565b925050602083013567ffffffffffffffff811115610f2c57600080fd5b610f3885828601610e5b565b9150509250929050565b60008060408385031215610f5557600080fd5b6000610f6385828601610eb1565b9250506020610f7485828601610eb1565b9150509250929050565b610f8781611564565b82525050565b6000610f9882611541565b80845260208401935083602082028501610fb185611534565b60005b84811015610fea578383038852610fcc8383516112a9565b9250610fd782611557565b9150602088019750600181019050610fb4565b508196508694505050505092915050565b60006110068261154c565b80845261101a8160208601602086016115a7565b611023816115da565b602085010191505092915050565b6000600a82527f696e76616c6964206964000000000000000000000000000000000000000000006020830152604082019050919050565b6000601b82527f6465706f736974206c6f776572206f7220696e76616c696420696400000000006020830152604082019050919050565b6000601e82527f6f6e6c792077686f20726563656976652069742063616e2072657475726e00006020830152604082019050919050565b6000600a82527f636f7374206c6f776572000000000000000000000000000000000000000000006020830152604082019050919050565b6000601682527f73706f6e736f722063616e6e6f742072656365697665000000000000000000006020830152604082019050919050565b6000600e82527f63616e63656c206661696c65642e0000000000000000000000000000000000006020830152604082019050919050565b6000601a82527f6f6e6c792073706f6e736f722063616e2063616e63656c2069740000000000006020830152604082019050919050565b6000601282527f6765742073616c617279206661696c65642e00000000000000000000000000006020830152604082019050919050565b6000600f82527f66696c657320646573646f7279656400000000000000000000000000000000006020830152604082019050919050565b600060c0830160008301516112386000860182611332565b50602083015161124b6020860182611332565b50604083015161125e6040860182611332565b50606083015184820360608601526112768282610ffb565b915050608083015161128b6080860182610f7e565b5060a083015161129e60a0860182610f7e565b508091505092915050565b600060c0830160008301516112c16000860182611332565b5060208301516112d46020860182611332565b5060408301516112e76040860182611332565b50606083015184820360608601526112ff8282610ffb565b91505060808301516113146080860182610f7e565b5060a083015161132760a0860182610f7e565b508091505092915050565b61133b81611584565b82525050565b60006020820190506113566000830184610f7e565b92915050565b600060208201905081810360008301526113768184610f8d565b905092915050565b6000602082019050818103600083015261139781611031565b9050919050565b600060208201905081810360008301526113b781611068565b9050919050565b600060208201905081810360008301526113d78161109f565b9050919050565b600060208201905081810360008301526113f7816110d6565b9050919050565b600060208201905081810360008301526114178161110d565b9050919050565b6000602082019050818103600083015261143781611144565b9050919050565b600060208201905081810360008301526114578161117b565b9050919050565b60006020820190508181036000830152611477816111b2565b9050919050565b60006020820190508181036000830152611497816111e9565b9050919050565b600060208201905081810360008301526114b88184611220565b905092915050565b60006020820190506114d56000830184611332565b92915050565b6000604051905081810181811067ffffffffffffffff821117156114fe57600080fd5b8060405250919050565b600067ffffffffffffffff82111561151f57600080fd5b601f19601f8301169050602081019050919050565b6000602082019050919050565b600081519050919050565b600081519050919050565b6000602082019050919050565b600073ffffffffffffffffffffffffffffffffffffffff82169050919050565b6000819050919050565b6000819050919050565b82818337600083830152505050565b60005b838110156115c55780820151818401526020810190506115aa565b838111156115d4576000848401525b50505050565b6000601f19601f83011690509190505600a265627a7a72305820ddc6f616df8cd403fac58b11d50534fe676f322bfe788735dc57f9274054dff66c6578706572696d656e74616cf50037",
  "source": "pragma solidity >=0.4.22 <0.7.0;\npragma experimental ABIEncoderV2;\n\ncontract Migrations {\n  struct Task {\n    uint    task_id;        // index from 0\n    uint    cost;\n    uint    deposit;\n    string  check_sum;\n    address sponsor;\n    address target;\n  }\n  address public owner;\n  Task[]  tasks;\n\n  modifier restricted() {\n    if (msg.sender == owner) _;\n  }\n\n  constructor() public {\n    owner = msg.sender;\n  }\n\n  function submitTask(uint cost, string check_sum) public payable {\n    require(cost <= msg.value, \"cost lower\");\n    Task memory tmp_task;\n    tmp_task.task_id = tasks.length;\n    tmp_task.cost = cost;\n    tmp_task.check_sum = check_sum;\n    tmp_task.sponsor = msg.sender;\n    tasks.push(tmp_task);\n  }\n\n  function receiveTask(uint id, uint deposit) public payable {\n    require(deposit <= msg.value && id < tasks.length, \"deposit lower or invalid id\");\n    require(msg.sender != tasks[id].sponsor, \"sponsor cannot receive\");\n    tasks[id].target = msg.sender;\n    tasks[id].deposit = deposit;\n  }\n\n  function returnResource(uint id, string check_sum) public payable {\n    require(id < tasks.length, \"invalid id\");\n    require(msg.sender == tasks[id].target, \"only who receive it can return\");\n    require(keccak256(bytes(check_sum)) == keccak256(bytes(tasks[id].check_sum)), \"files desdoryed\");\n    uint salary = (uint)(tasks[id].cost+tasks[id].deposit); // punishment\n    (bool success) = msg.sender.call.value(salary)(\"\");\n    require(success, \"get salary failed.\");\n  }\n\n  function cancelTask(uint id) public payable {\n    require(id < tasks.length, \"invalid id\");\n    require(msg.sender == tasks[id].sponsor, \"only sponsor can cancel it\");\n    uint ret_money = (uint)(tasks[id].cost*9/10);\n    (bool success) = msg.sender.call.value(ret_money)(\"\");\n    require(success, \"cancel failed.\");\n  }\n\n  function getAllTasks() public view returns(Task[] memory Tasks) {\n    return tasks;\n  }\n\n  function getTaskById(uint id) public view returns (Task memory task) {\n    return tasks[id];\n  }\n\n  function getLastTaskId() public view returns (uint id) {\n    return tasks[tasks.length-1].task_id;\n  }\n}\n",
  "sourcePath": "/mnt/PIJ/Contact/contracts/Migrations.sol",
  "compiler": {
    "name": "solc",
    "version": "0.4.26+commit.4563c3fc.Emscripten.clang"
  },
  "schemaVersion": "2.0.3",
  "updatedAt": "2021-10-26T09:51:44.633Z"
}